:100000000C942A000C943F000C943F000C943F0089
:100010000C943F000C943F000C943F000C943F0064
:100020000C943F000C943F000C943F000C94B300E0
:100030000C943F000C943F000C943F000C943F0044
:100040000C943F000C943F000C943F000C943F0034
:100050000C943F0011241FBECFE5D8E0DEBFCDBF1A
:1000600010E0A0E6B0E0EEE7F2E002C005900D92ED
:10007000A236B107D9F70E9428010C943D010C94D7
:100080000000982F8BB389278BBBFCCF0F931F9356
:100090009B016091600070916100AB01E6E0440F4C
:1000A000551FEA95E1F7509541955F4F4B5E574FCD
:1000B00000E110E00E949E002091600030916100FC
:1000C0002F5F3F4F309361002093600021503040FC
:1000D000C9011F910F9108950F931F938FEF8ABB52
:1000E0001BBA01E410E0C80161E070E00E94460024
:1000F000C80162E070E00E944600C80164E070E060
:100100000E944600C80168E070E00E944600C801F5
:1001100060E170E00E944600C80160E270E00E9469
:100120004600C80160E470E00E944600C80160E833
:1001300070E00E9446001F910F910895EDE5F8E0F0
:10014000E61B0083E5E4660FE61BF109DA019397ED
:10015000A083B293FD0111821382338F228FFA01A3
:10016000808392930895FF93EF93EE27F0915E08BA
:10017000FE1731F0FA95F0935E08FF91EF91189514
:10018000DF93CF93BF93AF939F938F937F936F939F
:100190005F934F933F932F931F930F93FF92EF9291
:1001A000DF92CF92BF92AF929F928F927F926F9287
:1001B0005F924F923F922F921F920F921FB71F9301
:1001C00080915F081124E5E4F8E0880FE81BF1094D
:1001D0001DB710831EB7129386958A950AF001C049
:1001E00087E1EDE5F8E0E81B00810115B1F300932C
:1001F0005E0880935F08E5E4F8E0880FE81BF109EA
:1002000010811DBF12911EBF1F91187F1FBF0F903D
:100210001F902F903F904F905F906F907F908F90A6
:100220009F90AF90BF90CF90DF90EF90FF900F9195
:100230001F912F913F914F915F916F917F918F917E
:100240009F91AF91BF91CF91DF91EF91FF91189561
:1002500082E083BF41E049BF48E04EBF45E14DBF6A
:100260001124EEE5F8E009E112920A95E9F71092FF
:0E0270005F080E946C007894FFCFF894FFCFD7
:02027E0001007D
:00000001FF
